S01200006368345F747261696C332E7372656365
S11300000C942A000C9447000C9447000C9447006D
S11300100C9447000C9447000C9447000C94470040
S11300200C9447000C9447000C9447000C94470030
S11300300C9447000C9447000C9447000C94470020
S11300400C9447000C9447000C9447000C94470010
S11300500C94470011241FBECFE5D8E0DEBFCDBF0E
S113006010E0A0E6B0E0E8E1F8E002C005900D92EF
S1130070AE3EB107D9F720E0AEEEB0E001C01D926C
S1130080A43FB207E1F70E94ED010C940A040C941A
S1130090000080EA87BB8BE58DB91EB808958FB93F
S11300A0779BFECF8FB108950F931F93CF93DF9368
S11300B000D0CDB7DEB7062F3227232732273A8365
S11300C0298320E8629FC0011124142F182BC4989F
S11300D085E38A95F1F700000E944900812F0E9470
S11300E04F0025E12A95F1F70000002349F080E054
S11300F00E944F00898380E00E944F008A8306C0DB
S113010089810E944F008A810E944F00C49A85E32E
S11301108A95F1F7000089819A8198278927982781
S11301200F900F90DF91CF911F910F9108952FEFB2
S11301303FEF49E461E00E945400BC0180E090E09C
S11301400E94DF0220E030E048EC52E40E946D029D
S113015008952FEF3FEF46E461E00E9454000895B4
S11301602FEF3FEF48E461E00E945400BC0180E0BF
S113017090E00E94DF0220E030E04AE754E40E946D
S11301806D0208952FEF3FEF4AE461E00E945400AE
S1130190BC01990F880B990B0E94E10208952FEF7F
S11301A03FEF4BE461E00E945400BC01990F880BBF
S11301B0990B0E94E10208952FEF3FEF4DE461E0B7
S11301C00E945400992334F4BC017F77882799272F
S11301D0861B970BBC01990F880B990B0E94E102B7
S11301E020E030E04AE754E40E946D0208952FEFC6
S11301F03FEF40E461E00E945400BC0180E090E0E5
S11302000E94DF0227E137EB41ED58E30E946D03C2
S113021008952FEF3FEF41E461E00E945400BC01D8
S113022080E090E00E94DF0227E137EB41ED58E3E4
S11302300E946D0308952FEF3FEF41E061E00E94BB
S113024054000895CF93DF93EC0181E090E008809F
S113025002C0880F991F0A94E2F787BB81E081BB33
S113026082E081BB2AE938E740E060E0CE010E94E9
S1130270540020E330E042E060E0CE010E945400EC
S11302802FE23FE143E060E0CE010E94540028E702
S113029036E540E260E0CE010E94540029EB30E0F4
S11302A041E260E0CE010E94540023EF31EC42E2CF
S11302B060E0CE010E9454002A813B8143E260E069
S11302C0CE010E94540020E030E044E260E0CE0120
S11302D00E9454002DEB38E047E260E0CE010E941A
S11302E0540020E030E048E260E0CE010E94540077
S11302F02CEE3AE049E260E0CE010E94540020E096
S113030030E04AE260E0CE010E94540022E234E987
S11303104BE260E0CE010E945400288539854CE20E
S113032060E0CE010E94540028E736E540E360E037
S1130330CE010E9454002C813D8141E360E0CE0156
S11303400E9454002E813F8142E360E0CE010E946E
S1130350540020E030E044E360E0CE010E94540009
S113036020E030E045E360E0CE010E94540020E04C
S113037030E047E360E0CE010E94540020E030E02A
S113038048E360E0CE010E9454002A853B854BE39C
S113039060E0CE010E94540025E637E840E260E0C8
S11303A0CE010E94540025E637E840E360E0CE0128
S11303B00E945400CE010E941B019C012227307C24
S11303C0232B11F021E022BB88279073892B11F095
S11303D082E082BBDF91CF910895CF93DF93CDB7B5
S11303E0DEB72C970FB6F894DEBF0FBECDBF84E006
S11303F090E09A83898389E39DE19C838B8384E6DF
S113040094ED9E838D8389E49EE698878F8384E3AD
S11304109AE49A87898784E992ED9C878B8711BA3D
S113042080E181BBCE0101960E94220110E19B99DB
S113043052C080E690E00E94DA03CE0101960E9449
S11304401B018CE690E00E94DA03CE0101960E9423
S1130450A9008AE790E00E94DA03CE0101960E9487
S1130460970083E890E00E94DA03CE0101960E948F
S1130470B0008CE890E00E94DA03CE0101960E945D
S1130480C2008AE990E00E94DA03CE0101960E943C
S1130490CF008AEA90E00E94DA03CE0101960E941E
S11304A0DC0080EB90E00E94DA03CE0101960E940A
S11304B0F7008FEC90E00E94DA03CE0101960E94CF
S11304C009012FEF89E698E1215080409040E1F73F
S11304D000C00000ACCF12BBAACF0E9481020C94D2
S11304E033030E942C0358F00E94250340F029F4A2
S11304F05F3F29F00C941C0351110C9467030C9476
S113050022030E94440368F39923B1F3552391F322
S1130510951B550BBB27AA2762177307840738F06E
S11305209F5F5F4F220F331F441FAA1FA9F335D0CB
S11305300E2E3AF0E0E832D091505040E695001C7F
S1130540CAF72BD0FE2F29D0660F771F881FBB1F39
S1130550261737074807AB07B0E809F0BB0B802D17
S1130560BF01FF2793585F4F3AF09E3F510578F043
S11305700C941C030C9467035F3FE4F3983ED4F39C
S1130580869577956795B795F7959F5FC9F7880F17
S1130590911D9695879597F90895E1E0660F771F69
S11305A0881FBB1F621773078407BA0720F0621BFA
S11305B0730B840BBA0BEE1F88F7E0950895E8944B
S11305C009C097FB3EF490958095709561957F4F97
S11305D08F4F9F4F9923A9F0F92F96E9BB27939545
S11305E0F695879577956795B795F111F8CFFAF455
S11305F0BB0F11F460FF1BC06F5F7F4F8F4F9F4F86
S113060016C0882311F096E911C0772321F09EE8E3
S1130610872F762F05C0662371F096E8862F70E049
S113062060E02AF09A95660F771F881FDAF7880F23
S11306309695879597F9089597F99F6780E870E0F4
S113064060E008959FEF80EC089500240A94161644
S1130650170618060906089500240A9412161306AC
S1130660140605060895092E0394000C11F488233A
S113067052F0BB0F40F4BF2B11F460FF04C06F5F56
S11306807F4F8F4F9F4F089557FD9058440F551F2C
S113069059F05F3F71F04795880F97FB991F61F000
S11306A09F3F79F087950895121613061406551F77
S11306B0F2CF4695F1DF08C0161617061806991FE3
S11306C0F1CF86957105610508940895E894BB27D8
S11306D066277727CB0197F908950E9480030C942D
S11306E033030E94250338F00E942C0320F0952345
S11306F011F00C941C030C94220311240C94670332
S11307000E94440370F3959FC1F3950F50E0551F69
S1130710629FF001729FBB27F00DB11D639FAA2752
S1130720F00DB11DAA1F649F6627B00DA11D661FA1
S1130730829F2227B00DA11D621F739FB00DA11DC2
S1130740621F839FA00D611D221F749F3327A00D7C
S1130750611D231F849F600D211D822F762F6A2F18
S113076011249F5750409AF0F1F088234AF0EE0F7D
S1130770FF1FBB1F661F771F881F91505040A9F7AA
S11307809E3F510580F00C941C030C9467035F3F5B
S1130790E4F3983ED4F3869577956795B795F795E6
S11307A0E7959F5FC1F7FE2B880F911D969587955E
S11307B097F908950F931F93CF93DF93E091F0007F
S11307C0F091F100238121FF1BC08C01D0E0C0E037
S11307D0F80181918F016091F0007091F100DB01CB
S11307E01896ED91FC911997882331F00995892B7E
S11307F079F3DFEFCFEFECCF8AE00995892B19F07D
S11308008FEF9FEF02C08D2F9C2FDF91CF911F910F
S10B08100F910895F894FFCF45
S1130818537973205374617475733A004D65746524
S113082872205374617475733A00566F6C746167FF
S1130838653A0043757272656E743A00416374696F
S1130848766520706F7765723A00526561637469E2
S1130858766520706F7765723A00702E662E3A00BE
S1130868456E6572677920636F6E73756D65642074
S113087862792045562073746174696F6E3A004535
S11308886E6572677920636F6E73756D6564206237
S1110898792045562076656869636C653A00E0
S9030000FC
